{
  "_format": "hh-sol-artifact-1",
  "contractName": "WavePortal",
  "sourceName": "contracts/WavePortal.sol",
  "abi": [
    {
      "inputs": [],
      "stateMutability": "nonpayable",
      "type": "constructor"
    },
    {
      "inputs": [
        {
          "internalType": "address",
          "name": "",
          "type": "address"
        }
      ],
      "name": "addressToWave",
      "outputs": [
        {
          "internalType": "uint256",
          "name": "",
          "type": "uint256"
        }
      ],
      "stateMutability": "view",
      "type": "function"
    },
    {
      "inputs": [],
      "name": "getTotalWaves",
      "outputs": [
        {
          "internalType": "uint256",
          "name": "",
          "type": "uint256"
        }
      ],
      "stateMutability": "view",
      "type": "function"
    },
    {
      "inputs": [
        {
          "internalType": "address",
          "name": "sourceAddress",
          "type": "address"
        }
      ],
      "name": "getTotalWavesAddress",
      "outputs": [
        {
          "internalType": "uint256",
          "name": "",
          "type": "uint256"
        }
      ],
      "stateMutability": "view",
      "type": "function"
    },
    {
      "inputs": [],
      "name": "wave",
      "outputs": [],
      "stateMutability": "nonpayable",
      "type": "function"
    }
  ],
  "bytecode": "0x608060405234801561001057600080fd5b5061032a806100206000396000f3fe608060405234801561001057600080fd5b506004361061004c5760003560e01c80636fe15b44146100515780639943aca81461005b5780639a2cdc081461008b578063d56ed0af146100a9575b600080fd5b6100596100d9565b005b610075600480360381019061007091906101c9565b61014a565b6040516100829190610201565b60405180910390f35b610093610193565b6040516100a09190610201565b60405180910390f35b6100c360048036038101906100be91906101c9565b61019c565b6040516100d09190610201565b60405180910390f35b60016000808282546100eb919061021c565b9250508190555060018060003373ffffffffffffffffffffffffffffffffffffffff1673ffffffffffffffffffffffffffffffffffffffff1681526020019081526020016000206000828254610141919061021c565b92505081905550565b6000600160008373ffffffffffffffffffffffffffffffffffffffff1673ffffffffffffffffffffffffffffffffffffffff168152602001908152602001600020549050919050565b60008054905090565b60016020528060005260406000206000915090505481565b6000813590506101c3816102dd565b92915050565b6000602082840312156101db57600080fd5b60006101e9848285016101b4565b91505092915050565b6101fb816102a4565b82525050565b600060208201905061021660008301846101f2565b92915050565b6000610227826102a4565b9150610232836102a4565b9250827fffffffffffffffffffffffffffffffffffffffffffffffffffffffffffffffff03821115610267576102666102ae565b5b828201905092915050565b600061027d82610284565b9050919050565b600073ffffffffffffffffffffffffffffffffffffffff82169050919050565b6000819050919050565b7f4e487b7100000000000000000000000000000000000000000000000000000000600052601160045260246000fd5b6102e681610272565b81146102f157600080fd5b5056fea2646970667358221220c7399904dd380cc4264465c80b4946f6a4b464be300aee5446f31131aea8f57164736f6c63430008000033",
  "linkReferences": {},
  "deployedLinkReferences": {}
}