{
  "_format": "hh-sol-artifact-1",
  "contractName": "WavePortal",
  "sourceName": "contracts/WavePortal.sol",
  "abi": [
    {
      "inputs": [],
      "stateMutability": "payable",
      "type": "constructor"
    },
    {
      "anonymous": false,
      "inputs": [
        {
          "indexed": true,
          "internalType": "address",
          "name": "from",
          "type": "address"
        },
        {
          "indexed": false,
          "internalType": "uint256",
          "name": "timestamp",
          "type": "uint256"
        },
        {
          "indexed": false,
          "internalType": "string",
          "name": "message",
          "type": "string"
        }
      ],
      "name": "NewWave",
      "type": "event"
    },
    {
      "inputs": [
        {
          "internalType": "address",
          "name": "",
          "type": "address"
        }
      ],
      "name": "addressToWave",
      "outputs": [
        {
          "internalType": "uint256",
          "name": "",
          "type": "uint256"
        }
      ],
      "stateMutability": "view",
      "type": "function"
    },
    {
      "inputs": [],
      "name": "getAllWaves",
      "outputs": [
        {
          "components": [
            {
              "internalType": "address",
              "name": "waver",
              "type": "address"
            },
            {
              "internalType": "string",
              "name": "message",
              "type": "string"
            },
            {
              "internalType": "uint256",
              "name": "timestamp",
              "type": "uint256"
            }
          ],
          "internalType": "struct WavePortal.Wave[]",
          "name": "",
          "type": "tuple[]"
        }
      ],
      "stateMutability": "view",
      "type": "function"
    },
    {
      "inputs": [],
      "name": "getTotalWaves",
      "outputs": [
        {
          "internalType": "uint256",
          "name": "",
          "type": "uint256"
        }
      ],
      "stateMutability": "view",
      "type": "function"
    },
    {
      "inputs": [
        {
          "internalType": "address",
          "name": "sourceAddress",
          "type": "address"
        }
      ],
      "name": "getTotalWavesAddress",
      "outputs": [
        {
          "internalType": "uint256",
          "name": "",
          "type": "uint256"
        }
      ],
      "stateMutability": "view",
      "type": "function"
    },
    {
      "inputs": [
        {
          "internalType": "address",
          "name": "",
          "type": "address"
        }
      ],
      "name": "lastWon",
      "outputs": [
        {
          "internalType": "uint256",
          "name": "",
          "type": "uint256"
        }
      ],
      "stateMutability": "view",
      "type": "function"
    },
    {
      "inputs": [
        {
          "internalType": "string",
          "name": "_message",
          "type": "string"
        }
      ],
      "name": "wave",
      "outputs": [],
      "stateMutability": "nonpayable",
      "type": "function"
    }
  ],
  "bytecode": "0x6080604052606444426200001491906200002c565b62000020919062000093565b60028190555062000129565b6000620000398262000089565b9150620000468362000089565b9250827fffffffffffffffffffffffffffffffffffffffffffffffffffffffffffffffff038211156200007e576200007d620000cb565b5b828201905092915050565b6000819050919050565b6000620000a08262000089565b9150620000ad8362000089565b925082620000c057620000bf620000fa565b5b828206905092915050565b7f4e487b7100000000000000000000000000000000000000000000000000000000600052601160045260246000fd5b7f4e487b7100000000000000000000000000000000000000000000000000000000600052601260045260246000fd5b61117b80620001396000396000f3fe608060405234801561001057600080fd5b50600436106100625760003560e01c8063449d46c01461006757806390f23b1d146100835780639943aca8146100b35780639a2cdc08146100e3578063bd43a90814610101578063d56ed0af1461011f575b600080fd5b610081600480360381019061007c9190610a64565b61014f565b005b61009d60048036038101906100989190610a3b565b6105e7565b6040516100aa9190610de9565b60405180910390f35b6100cd60048036038101906100c89190610a3b565b6105ff565b6040516100da9190610de9565b60405180910390f35b6100eb610648565b6040516100f89190610de9565b60405180910390f35b610109610651565b6040516101169190610d27565b60405180910390f35b61013960048036038101906101349190610a3b565b6107a2565b6040516101469190610de9565b60405180910390f35b60016000808282546101619190610f06565b9250508190555060018060003373ffffffffffffffffffffffffffffffffffffffff1673ffffffffffffffffffffffffffffffffffffffff16815260200190815260200160002060008282546101b79190610f06565b92505081905550600460405180606001604052803373ffffffffffffffffffffffffffffffffffffffff16815260200183815260200142815250908060018154018082558091505060019003906000526020600020906003020160009091909190915060008201518160000160006101000a81548173ffffffffffffffffffffffffffffffffffffffff021916908373ffffffffffffffffffffffffffffffffffffffff160217905550602082015181600101908051906020019061027d92919061091b565b506040820151816002015550506064600254424461029b9190610f06565b6102a59190610f06565b6102af919061100c565b6002819055506102f66040518060400160405280601681526020017f52616e646f6d20232067656e6572617465643a202564000000000000000000008152506002546107ba565b603260025411610594576000600360003373ffffffffffffffffffffffffffffffffffffffff1673ffffffffffffffffffffffffffffffffffffffff1681526020019081526020016000205411801561039b575042610384600360003373ffffffffffffffffffffffffffffffffffffffff1673ffffffffffffffffffffffffffffffffffffffff168152602001908152602001600020546103989190610f06565b10155b156104135761040e60405180606001604052806024815260200161112260249139610384600360003373ffffffffffffffffffffffffffffffffffffffff1673ffffffffffffffffffffffffffffffffffffffff168152602001908152602001600020546104099190610f06565b6107ba565b610593565b6104526040518060400160405280600781526020017f257320776f6e210000000000000000000000000000000000000000000000000081525033610856565b6000655af3107a40009050478111156104a0576040517f08c379a000000000000000000000000000000000000000000000000000000000815260040161049790610da9565b60405180910390fd5b60003373ffffffffffffffffffffffffffffffffffffffff16826040516104c690610d12565b60006040518083038185875af1925050503d8060008114610503576040519150601f19603f3d011682016040523d82523d6000602084013e610508565b606091505b505090508061054c576040517f08c379a000000000000000000000000000000000000000000000000000000000815260040161054390610dc9565b60405180910390fd5b42600360003373ffffffffffffffffffffffffffffffffffffffff1673ffffffffffffffffffffffffffffffffffffffff1681526020019081526020016000208190555050505b5b3373ffffffffffffffffffffffffffffffffffffffff167f5f7e16dc676677766a70e9c5628aa6c54ddb8b6e5188e2ae1e1f17f1ffbea71642836040516105dc929190610e04565b60405180910390a250565b60036020528060005260406000206000915090505481565b6000600160008373ffffffffffffffffffffffffffffffffffffffff1673ffffffffffffffffffffffffffffffffffffffff168152602001908152602001600020549050919050565b60008054905090565b60606004805480602002602001604051908101604052809291908181526020016000905b8282101561079957838290600052602060002090600302016040518060600160405290816000820160009054906101000a900473ffffffffffffffffffffffffffffffffffffffff1673ffffffffffffffffffffffffffffffffffffffff1673ffffffffffffffffffffffffffffffffffffffff1681526020016001820180546106fe90610fda565b80601f016020809104026020016040519081016040528092919081815260200182805461072a90610fda565b80156107775780601f1061074c57610100808354040283529160200191610777565b820191906000526020600020905b81548152906001019060200180831161075a57829003601f168201915b5050505050815260200160028201548152505081526020019060010190610675565b50505050905090565b60016020528060005260406000206000915090505481565b61085282826040516024016107d0929190610d79565b6040516020818303038152906040527f9710a9d0000000000000000000000000000000000000000000000000000000007bffffffffffffffffffffffffffffffffffffffffffffffffffffffff19166020820180517bffffffffffffffffffffffffffffffffffffffffffffffffffffffff83818316178352505050506108f2565b5050565b6108ee828260405160240161086c929190610d49565b6040516020818303038152906040527f319af333000000000000000000000000000000000000000000000000000000007bffffffffffffffffffffffffffffffffffffffffffffffffffffffff19166020820180517bffffffffffffffffffffffffffffffffffffffffffffffffffffffff83818316178352505050506108f2565b5050565b60008151905060006a636f6e736f6c652e6c6f679050602083016000808483855afa5050505050565b82805461092790610fda565b90600052602060002090601f0160209004810192826109495760008555610990565b82601f1061096257805160ff1916838001178555610990565b82800160010185558215610990579182015b8281111561098f578251825591602001919060010190610974565b5b50905061099d91906109a1565b5090565b5b808211156109ba5760008160009055506001016109a2565b5090565b60006109d16109cc84610e65565b610e34565b9050828152602081018484840111156109e957600080fd5b6109f4848285610f98565b509392505050565b600081359050610a0b8161110a565b92915050565b600082601f830112610a2257600080fd5b8135610a328482602086016109be565b91505092915050565b600060208284031215610a4d57600080fd5b6000610a5b848285016109fc565b91505092915050565b600060208284031215610a7657600080fd5b600082013567ffffffffffffffff811115610a9057600080fd5b610a9c84828501610a11565b91505092915050565b6000610ab18383610ca4565b905092915050565b610ac281610f5c565b82525050565b610ad181610f5c565b82525050565b6000610ae282610ea5565b610aec8185610ec8565b935083602082028501610afe85610e95565b8060005b85811015610b3a5784840389528151610b1b8582610aa5565b9450610b2683610ebb565b925060208a01995050600181019050610b02565b50829750879550505050505092915050565b6000610b5782610eb0565b610b618185610ee4565b9350610b71818560208601610fa7565b610b7a816110f9565b840191505092915050565b6000610b9082610eb0565b610b9a8185610ef5565b9350610baa818560208601610fa7565b610bb3816110f9565b840191505092915050565b6000610bcb603483610ef5565b91507f547279696e6720746f207769746864726177206d6f7265206d6f6e657920746860008301527f616e2074686520636f6e7472616374206861732e0000000000000000000000006020830152604082019050919050565b6000610c31602783610ef5565b91507f4661696c656420746f207769746864726177206d6f6e65792066726f6d20636f60008301527f6e74726163742e000000000000000000000000000000000000000000000000006020830152604082019050919050565b6000610c97600083610ed9565b9150600082019050919050565b6000606083016000830151610cbc6000860182610ab9565b5060208301518482036020860152610cd48282610b4c565b9150506040830151610ce96040860182610cf4565b508091505092915050565b610cfd81610f8e565b82525050565b610d0c81610f8e565b82525050565b6000610d1d82610c8a565b9150819050919050565b60006020820190508181036000830152610d418184610ad7565b905092915050565b60006040820190508181036000830152610d638185610b85565b9050610d726020830184610ac8565b9392505050565b60006040820190508181036000830152610d938185610b85565b9050610da26020830184610d03565b9392505050565b60006020820190508181036000830152610dc281610bbe565b9050919050565b60006020820190508181036000830152610de281610c24565b9050919050565b6000602082019050610dfe6000830184610d03565b92915050565b6000604082019050610e196000830185610d03565b8181036020830152610e2b8184610b85565b90509392505050565b6000604051905081810181811067ffffffffffffffff82111715610e5b57610e5a6110ca565b5b8060405250919050565b600067ffffffffffffffff821115610e8057610e7f6110ca565b5b601f19601f8301169050602081019050919050565b6000819050602082019050919050565b600081519050919050565b600081519050919050565b6000602082019050919050565b600082825260208201905092915050565b600081905092915050565b600082825260208201905092915050565b600082825260208201905092915050565b6000610f1182610f8e565b9150610f1c83610f8e565b9250827fffffffffffffffffffffffffffffffffffffffffffffffffffffffffffffffff03821115610f5157610f5061103d565b5b828201905092915050565b6000610f6782610f6e565b9050919050565b600073ffffffffffffffffffffffffffffffffffffffff82169050919050565b6000819050919050565b82818337600083830152505050565b60005b83811015610fc5578082015181840152602081019050610faa565b83811115610fd4576000848401525b50505050565b60006002820490506001821680610ff257607f821691505b602082108114156110065761100561109b565b5b50919050565b600061101782610f8e565b915061102283610f8e565b9250826110325761103161106c565b5b828206905092915050565b7f4e487b7100000000000000000000000000000000000000000000000000000000600052601160045260246000fd5b7f4e487b7100000000000000000000000000000000000000000000000000000000600052601260045260246000fd5b7f4e487b7100000000000000000000000000000000000000000000000000000000600052602260045260246000fd5b7f4e487b7100000000000000000000000000000000000000000000000000000000600052604160045260246000fd5b6000601f19601f8301169050919050565b61111381610f5c565b811461111e57600080fd5b5056fe596f7520636f756c6427766520776f6e206275742074727920616761696e206174202564a26469706673582212201599e601a706b95a18fdeb02b20d277f769ac410cd1b7da3bc34766607f8975364736f6c63430008000033",
  "linkReferences": {},
  "deployedLinkReferences": {}
}