{
  "_format": "hh-sol-artifact-1",
  "contractName": "WavePortal",
  "sourceName": "contracts/WavePortal.sol",
  "abi": [
    {
      "inputs": [],
      "stateMutability": "nonpayable",
      "type": "constructor"
    },
    {
      "anonymous": false,
      "inputs": [
        {
          "indexed": true,
          "internalType": "address",
          "name": "from",
          "type": "address"
        },
        {
          "indexed": false,
          "internalType": "uint256",
          "name": "timestamp",
          "type": "uint256"
        },
        {
          "indexed": false,
          "internalType": "string",
          "name": "message",
          "type": "string"
        }
      ],
      "name": "NewWave",
      "type": "event"
    },
    {
      "inputs": [
        {
          "internalType": "address",
          "name": "",
          "type": "address"
        }
      ],
      "name": "addressToWave",
      "outputs": [
        {
          "internalType": "uint256",
          "name": "",
          "type": "uint256"
        }
      ],
      "stateMutability": "view",
      "type": "function"
    },
    {
      "inputs": [],
      "name": "getAllWaves",
      "outputs": [
        {
          "components": [
            {
              "internalType": "address",
              "name": "waver",
              "type": "address"
            },
            {
              "internalType": "string",
              "name": "message",
              "type": "string"
            },
            {
              "internalType": "uint256",
              "name": "timestamp",
              "type": "uint256"
            }
          ],
          "internalType": "struct WavePortal.Wave[]",
          "name": "",
          "type": "tuple[]"
        }
      ],
      "stateMutability": "view",
      "type": "function"
    },
    {
      "inputs": [],
      "name": "getTotalWaves",
      "outputs": [
        {
          "internalType": "uint256",
          "name": "",
          "type": "uint256"
        }
      ],
      "stateMutability": "view",
      "type": "function"
    },
    {
      "inputs": [
        {
          "internalType": "address",
          "name": "sourceAddress",
          "type": "address"
        }
      ],
      "name": "getTotalWavesAddress",
      "outputs": [
        {
          "internalType": "uint256",
          "name": "",
          "type": "uint256"
        }
      ],
      "stateMutability": "view",
      "type": "function"
    },
    {
      "inputs": [
        {
          "internalType": "string",
          "name": "_message",
          "type": "string"
        }
      ],
      "name": "wave",
      "outputs": [],
      "stateMutability": "nonpayable",
      "type": "function"
    }
  ],
  "bytecode": "0x608060405234801561001057600080fd5b50610a84806100206000396000f3fe608060405234801561001057600080fd5b50600436106100575760003560e01c8063449d46c01461005c5780639943aca8146100785780639a2cdc08146100a8578063bd43a908146100c6578063d56ed0af146100e4575b600080fd5b610076600480360381019061007191906105a6565b610114565b005b610092600480360381019061008d919061057d565b6102a2565b60405161009f9190610781565b60405180910390f35b6100b06102eb565b6040516100bd9190610781565b60405180910390f35b6100ce6102f4565b6040516100db919061075f565b60405180910390f35b6100fe60048036038101906100f9919061057d565b610445565b60405161010b9190610781565b60405180910390f35b60016000808282546101269190610893565b9250508190555060018060003373ffffffffffffffffffffffffffffffffffffffff1673ffffffffffffffffffffffffffffffffffffffff168152602001908152602001600020600082825461017c9190610893565b92505081905550600260405180606001604052803373ffffffffffffffffffffffffffffffffffffffff16815260200183815260200142815250908060018154018082558091505060019003906000526020600020906003020160009091909190915060008201518160000160006101000a81548173ffffffffffffffffffffffffffffffffffffffff021916908373ffffffffffffffffffffffffffffffffffffffff160217905550602082015181600101908051906020019061024292919061045d565b506040820151816002015550503373ffffffffffffffffffffffffffffffffffffffff167f5f7e16dc676677766a70e9c5628aa6c54ddb8b6e5188e2ae1e1f17f1ffbea716428360405161029792919061079c565b60405180910390a250565b6000600160008373ffffffffffffffffffffffffffffffffffffffff1673ffffffffffffffffffffffffffffffffffffffff168152602001908152602001600020549050919050565b60008054905090565b60606002805480602002602001604051908101604052809291908181526020016000905b8282101561043c57838290600052602060002090600302016040518060600160405290816000820160009054906101000a900473ffffffffffffffffffffffffffffffffffffffff1673ffffffffffffffffffffffffffffffffffffffff1673ffffffffffffffffffffffffffffffffffffffff1681526020016001820180546103a190610967565b80601f01602080910402602001604051908101604052809291908181526020018280546103cd90610967565b801561041a5780601f106103ef5761010080835404028352916020019161041a565b820191906000526020600020905b8154815290600101906020018083116103fd57829003601f168201915b5050505050815260200160028201548152505081526020019060010190610318565b50505050905090565b60016020528060005260406000206000915090505481565b82805461046990610967565b90600052602060002090601f01602090048101928261048b57600085556104d2565b82601f106104a457805160ff19168380011785556104d2565b828001600101855582156104d2579182015b828111156104d15782518255916020019190600101906104b6565b5b5090506104df91906104e3565b5090565b5b808211156104fc5760008160009055506001016104e4565b5090565b600061051361050e846107fd565b6107cc565b90508281526020810184848401111561052b57600080fd5b610536848285610925565b509392505050565b60008135905061054d81610a37565b92915050565b600082601f83011261056457600080fd5b8135610574848260208601610500565b91505092915050565b60006020828403121561058f57600080fd5b600061059d8482850161053e565b91505092915050565b6000602082840312156105b857600080fd5b600082013567ffffffffffffffff8111156105d257600080fd5b6105de84828501610553565b91505092915050565b60006105f383836106f1565b905092915050565b610604816108e9565b82525050565b60006106158261083d565b61061f8185610860565b9350836020820285016106318561082d565b8060005b8581101561066d578484038952815161064e85826105e7565b945061065983610853565b925060208a01995050600181019050610635565b50829750879550505050505092915050565b600061068a82610848565b6106948185610871565b93506106a4818560208601610934565b6106ad81610a26565b840191505092915050565b60006106c382610848565b6106cd8185610882565b93506106dd818560208601610934565b6106e681610a26565b840191505092915050565b600060608301600083015161070960008601826105fb565b5060208301518482036020860152610721828261067f565b91505060408301516107366040860182610741565b508091505092915050565b61074a8161091b565b82525050565b6107598161091b565b82525050565b60006020820190508181036000830152610779818461060a565b905092915050565b60006020820190506107966000830184610750565b92915050565b60006040820190506107b16000830185610750565b81810360208301526107c381846106b8565b90509392505050565b6000604051905081810181811067ffffffffffffffff821117156107f3576107f26109f7565b5b8060405250919050565b600067ffffffffffffffff821115610818576108176109f7565b5b601f19601f8301169050602081019050919050565b6000819050602082019050919050565b600081519050919050565b600081519050919050565b6000602082019050919050565b600082825260208201905092915050565b600082825260208201905092915050565b600082825260208201905092915050565b600061089e8261091b565b91506108a98361091b565b9250827fffffffffffffffffffffffffffffffffffffffffffffffffffffffffffffffff038211156108de576108dd610999565b5b828201905092915050565b60006108f4826108fb565b9050919050565b600073ffffffffffffffffffffffffffffffffffffffff82169050919050565b6000819050919050565b82818337600083830152505050565b60005b83811015610952578082015181840152602081019050610937565b83811115610961576000848401525b50505050565b6000600282049050600182168061097f57607f821691505b60208210811415610993576109926109c8565b5b50919050565b7f4e487b7100000000000000000000000000000000000000000000000000000000600052601160045260246000fd5b7f4e487b7100000000000000000000000000000000000000000000000000000000600052602260045260246000fd5b7f4e487b7100000000000000000000000000000000000000000000000000000000600052604160045260246000fd5b6000601f19601f8301169050919050565b610a40816108e9565b8114610a4b57600080fd5b5056fea26469706673582212207179c206422c852b7f35a2c30441c5b1fdf3c2df68305f1d84eaf35178d5e8d364736f6c63430008000033",
  "linkReferences": {},
  "deployedLinkReferences": {}
}